{
  "contractName": "SpectroChain",
  "abi": [
    {
      "anonymous": false,
      "inputs": [
        {
          "indexed": true,
          "internalType": "string",
          "name": "productID",
          "type": "string"
        },
        {
          "indexed": false,
          "internalType": "string",
          "name": "batchID",
          "type": "string"
        },
        {
          "indexed": false,
          "internalType": "string",
          "name": "dataHash",
          "type": "string"
        },
        {
          "indexed": false,
          "internalType": "address",
          "name": "registrant",
          "type": "address"
        },
        {
          "indexed": false,
          "internalType": "uint256",
          "name": "timestamp",
          "type": "uint256"
        }
      ],
      "name": "MaterialRegistered",
      "type": "event"
    },
    {
      "inputs": [
        {
          "internalType": "string",
          "name": "_productID",
          "type": "string"
        },
        {
          "internalType": "string",
          "name": "_batchID",
          "type": "string"
        },
        {
          "internalType": "string",
          "name": "_dataHash",
          "type": "string"
        }
      ],
      "name": "registerMaterial",
      "outputs": [],
      "stateMutability": "nonpayable",
      "type": "function"
    },
    {
      "inputs": [
        {
          "internalType": "string",
          "name": "_productID",
          "type": "string"
        }
      ],
      "name": "getMaterialHash",
      "outputs": [
        {
          "internalType": "string",
          "name": "",
          "type": "string"
        }
      ],
      "stateMutability": "view",
      "type": "function",
      "constant": true
    }
  ],
  "bytecode": "0x608060405234801561001057600080fd5b506106f0806100206000396000f3fe608060405234801561001057600080fd5b50600436106100365760003560e01c80630fb4d1b61461003b578063944c301e1461006b575b600080fd5b610055600480360381019061005091906103bf565b610087565b6040516100629190610490565b60405180910390f35b610085600480360381019061008091906104b2565b610137565b005b60606000826040516100999190610595565b908152602001604051809103902080546100b2906105db565b80601f01602080910402602001604051908101604052809291908181526020018280546100de906105db565b801561012b5780601f106101005761010080835404028352916020019161012b565b820191906000526020600020905b81548152906001019060200180831161010e57829003601f168201915b50505050509050919050565b806000846040516101489190610595565b908152602001604051809103902090805190602001906101699291906101c2565b50826040516101789190610595565b60405180910390207fd352570f8d7fb0c1be13fbadf539b22f410f7cdff68a77d2b21ad285c38d8e6a838333426040516101b59493929190610667565b60405180910390a2505050565b8280546101ce906105db565b90600052602060002090601f0160209004810192826101f05760008555610237565b82601f1061020957805160ff1916838001178555610237565b82800160010185558215610237579182015b8281111561023657825182559160200191906001019061021b565b5b5090506102449190610248565b5090565b5b80821115610261576000816000905550600101610249565b5090565b6000604051905090565b600080fd5b600080fd5b600080fd5b600080fd5b6000601f19601f8301169050919050565b7f4e487b7100000000000000000000000000000000000000000000000000000000600052604160045260246000fd5b6102cc82610283565b810181811067ffffffffffffffff821117156102eb576102ea610294565b5b80604052505050565b60006102fe610265565b905061030a82826102c3565b919050565b600067ffffffffffffffff82111561032a57610329610294565b5b61033382610283565b9050602081019050919050565b82818337600083830152505050565b600061036261035d8461030f565b6102f4565b90508281526020810184848401111561037e5761037d61027e565b5b610389848285610340565b509392505050565b600082601f8301126103a6576103a5610279565b5b81356103b684826020860161034f565b91505092915050565b6000602082840312156103d5576103d461026f565b5b600082013567ffffffffffffffff8111156103f3576103f2610274565b5b6103ff84828501610391565b91505092915050565b600081519050919050565b600082825260208201905092915050565b60005b83811015610442578082015181840152602081019050610427565b83811115610451576000848401525b50505050565b600061046282610408565b61046c8185610413565b935061047c818560208601610424565b61048581610283565b840191505092915050565b600060208201905081810360008301526104aa8184610457565b905092915050565b6000806000606084860312156104cb576104ca61026f565b5b600084013567ffffffffffffffff8111156104e9576104e8610274565b5b6104f586828701610391565b935050602084013567ffffffffffffffff81111561051657610515610274565b5b61052286828701610391565b925050604084013567ffffffffffffffff81111561054357610542610274565b5b61054f86828701610391565b9150509250925092565b600081905092915050565b600061056f82610408565b6105798185610559565b9350610589818560208601610424565b80840191505092915050565b60006105a18284610564565b915081905092915050565b7f4e487b7100000000000000000000000000000000000000000000000000000000600052602260045260246000fd5b600060028204905060018216806105f357607f821691505b60208210811415610607576106066105ac565b5b50919050565b600073ffffffffffffffffffffffffffffffffffffffff82169050919050565b60006106388261060d565b9050919050565b6106488161062d565b82525050565b6000819050919050565b6106618161064e565b82525050565b600060808201905081810360008301526106818187610457565b905081810360208301526106958186610457565b90506106a4604083018561063f565b6106b16060830184610658565b9594505050505056fea2646970667358221220842cae6ca7c4d3dc4b8b254da28a1965eb4cdd00f3579b58222b5367cbaa904e64736f6c63430008090033",
  "immutableReferences": {},
  "source": "// SPDX-License-Identifier: MIT\r\npragma solidity ^0.8.9;\r\n\r\n/**\r\n * @title SpectroChain\r\n * @dev A simple smart contract to store and verify dental material authenticity\r\n * based on the hash of their Raman spectroscopy data.\r\n */\r\ncontract SpectroChain {\r\n\r\n    // Event to be emitted on new material registration\r\n    event MaterialRegistered(\r\n        string indexed productID,\r\n        string batchID,\r\n        string dataHash,\r\n        address registrant,\r\n        uint256 timestamp\r\n    );\r\n\r\n    // Mapping from a product ID to its data hash\r\n    // We use productID as the unique identifier for this MVP.\r\n    mapping(string => string) private materialHashes;\r\n\r\n    /**\r\n     * @dev Registers a new material by storing the hash of its spectral data.\r\n     * The combination of productID should be unique.\r\n     * @param _productID Unique identifier for the product (e.g., SKU, model number).\r\n     * @param _batchID The batch number of the product.\r\n     * @param _dataHash The SHA-256 hash of the Raman spectroscopy data file.\r\n     */\r\n    function registerMaterial(\r\n        string memory _productID,\r\n        string memory _batchID,\r\n        string memory _dataHash\r\n    ) public {\r\n        // For simplicity, we allow overwriting. In a real-world scenario, you might want\r\n        // to add a require() check to prevent this, e.g.,\r\n        // require(bytes(materialHashes[_productID]).length == 0, \"Product already registered.\");\r\n\r\n        materialHashes[_productID] = _dataHash;\r\n\r\n        emit MaterialRegistered(\r\n            _productID,\r\n            _batchID,\r\n            _dataHash,\r\n            msg.sender,\r\n            block.timestamp\r\n        );\r\n    }\r\n\r\n    /**\r\n     * @dev Retrieves the stored data hash for a given product ID.\r\n     * The verification logic (comparing this stored hash with a live hash)\r\n     * will be done off-chain by the backend.\r\n     * @param _productID The product ID to query.\r\n     * @return The stored data hash.\r\n     */\r\n    function getMaterialHash(string memory _productID) public view returns (string memory) {\r\n        return materialHashes[_productID];\r\n    }\r\n} ",
  "sourcePath": "E:\\Cn\\NCKH\\VER2\\Code\\SpectroChain-Dental\\SpectroChain-Dental\\blockchain\\contracts\\SpectroChain.sol",
  "compiler": {
    "name": "solc",
    "version": "0.8.9+commit.e5eed63a.Emscripten.clang"
  },
  "schemaVersion": "3.4.16",
  "updatedAt": "2025-07-04T13:18:38.084Z",
  "networkType": "ethereum",
  "devdoc": {
    "details": "A simple smart contract to store and verify dental material authenticity based on the hash of their Raman spectroscopy data.",
    "kind": "dev",
    "methods": {
      "getMaterialHash(string)": {
        "details": "Retrieves the stored data hash for a given product ID. The verification logic (comparing this stored hash with a live hash) will be done off-chain by the backend.",
        "params": {
          "_productID": "The product ID to query."
        },
        "returns": {
          "_0": "The stored data hash."
        }
      },
      "registerMaterial(string,string,string)": {
        "details": "Registers a new material by storing the hash of its spectral data. The combination of productID should be unique.",
        "params": {
          "_batchID": "The batch number of the product.",
          "_dataHash": "The SHA-256 hash of the Raman spectroscopy data file.",
          "_productID": "Unique identifier for the product (e.g., SKU, model number)."
        }
      }
    },
    "title": "SpectroChain",
    "version": 1
  },
  "userdoc": {
    "kind": "user",
    "methods": {},
    "version": 1
  }
}